{
  "contractName": "Faucet",
  "abi": [
    {
      "inputs": [],
      "stateMutability": "nonpayable",
      "type": "constructor"
    },
    {
      "inputs": [],
      "name": "owner",
      "outputs": [
        {
          "internalType": "address",
          "name": "",
          "type": "address"
        }
      ],
      "stateMutability": "view",
      "type": "function",
      "constant": true
    },
    {
      "stateMutability": "payable",
      "type": "receive",
      "payable": true
    },
    {
      "inputs": [],
      "name": "testOwner",
      "outputs": [],
      "stateMutability": "nonpayable",
      "type": "function"
    },
    {
      "inputs": [],
      "name": "addFunds",
      "outputs": [],
      "stateMutability": "payable",
      "type": "function",
      "payable": true
    },
    {
      "inputs": [
        {
          "internalType": "uint256",
          "name": "amount",
          "type": "uint256"
        }
      ],
      "name": "withdraw",
      "outputs": [],
      "stateMutability": "nonpayable",
      "type": "function"
    }
  ],
  "bytecode": "0x608060405234801561001057600080fd5b50336000806101000a81548173ffffffffffffffffffffffffffffffffffffffff021916908373ffffffffffffffffffffffffffffffffffffffff1602179055506103eb806100606000396000f3fe6080604052600436106100435760003560e01c80632e1a7d4d1461004f5780638da5cb5b146100785780639e535c69146100a3578063a26759cb146100ba5761004a565b3661004a57005b600080fd5b34801561005b57600080fd5b5061007660048036038101906100719190610226565b6100c4565b005b34801561008457600080fd5b5061008d61015b565b60405161009a91906102a4565b60405180910390f35b3480156100af57600080fd5b506100b861017f565b005b6100c261020f565b005b8067016345785d8a0000811015610110576040517f08c379a0000000000000000000000000000000000000000000000000000000008152600401610107906102bf565b60405180910390fd5b3373ffffffffffffffffffffffffffffffffffffffff166108fc839081150290604051600060405180830381858888f19350505050158015610156573d6000803e3d6000fd5b505050565b60008054906101000a900473ffffffffffffffffffffffffffffffffffffffff1681565b60008054906101000a900473ffffffffffffffffffffffffffffffffffffffff1673ffffffffffffffffffffffffffffffffffffffff163373ffffffffffffffffffffffffffffffffffffffff161461020d576040517f08c379a0000000000000000000000000000000000000000000000000000000008152600401610204906102df565b60405180910390fd5b565b565b6000813590506102208161039e565b92915050565b60006020828403121561023857600080fd5b600061024684828501610211565b91505092915050565b61025881610310565b82525050565b600061026b6017836102ff565b91506102768261034c565b602082019050919050565b600061028e6018836102ff565b915061029982610375565b602082019050919050565b60006020820190506102b9600083018461024f565b92915050565b600060208201905081810360008301526102d88161025e565b9050919050565b600060208201905081810360008301526102f881610281565b9050919050565b600082825260208201905092915050565b600061031b82610322565b9050919050565b600073ffffffffffffffffffffffffffffffffffffffff82169050919050565b6000819050919050565b7f4d696e20616d6f756e7420697320302e31206574686572000000000000000000600082015250565b7f6f6e6c7920776f6e65722063616e2063616c6c20746869730000000000000000600082015250565b6103a781610342565b81146103b257600080fd5b5056fea2646970667358221220037f0a3c446df1d5622cc9d5f2c03b50ac657d7b7de9d2cf1c7f49fbee127b8c64736f6c63430008040033",
  "immutableReferences": {},
  "source": "// SPDX-License-Identifier: MIT\r\npragma solidity >=0.4.22 <0.9.0;\r\n\r\ncontract Faucet {\r\n    address public owner;\r\n\r\n    constructor() {\r\n        owner = msg.sender;\r\n    }\r\n\r\n    //modifier is used to utilize the same code @multiple places\r\n\r\n    modifier limitWithdraw(uint256 amount) {\r\n        require(amount >= 100000000000000000, \"Min amount is 0.1 ether\");\r\n        _;\r\n    }\r\n\r\n    modifier onlyOwner() {\r\n        require(msg.sender == owner, \"only woner can call this\");\r\n        _;\r\n    }\r\n\r\n    function testOwner() external onlyOwner {\r\n        //only oner should call this fn.\r\n    }\r\n\r\n    //used to transfer funds from one account to another\r\n\r\n    //web3.eth.sendTransaction({from:'',to:'',value:'in wei'})\r\n    receive() external payable {}\r\n\r\n    //receive funds to contract address from any account\r\n    //const instance = await Faucet.deployed()\r\n    //instance.addFunds({from :accounts[2],value:\"4000000000000000000\"}\r\n    function addFunds() external payable {}\r\n\r\n    //withdraw fund from contract to account\r\n    //const instance = await Faucet.deployed()\r\n    //instance.withdraw(\"4000000000000000000\")\r\n    function withdraw(uint256 amount) external limitWithdraw(amount) {\r\n        payable(msg.sender).transfer(amount);\r\n    }\r\n}\r\n",
  "sourcePath": "D:\\BlockChain\\faucet\\contracts\\FaucetContract.sol",
  "compiler": {
    "name": "solc",
    "version": "0.8.4+commit.c7e474f2.Emscripten.clang"
  },
  "schemaVersion": "3.4.3",
  "updatedAt": "2021-11-08T13:01:33.706Z",
  "networkType": "ethereum",
  "devdoc": {
    "kind": "dev",
    "methods": {},
    "version": 1
  },
  "userdoc": {
    "kind": "user",
    "methods": {},
    "version": 1
  }
}