{
  "contractName": "Storage",
  "abi": [
    {
      "inputs": [],
      "name": "a",
      "outputs": [
        {
          "internalType": "uint8",
          "name": "",
          "type": "uint8"
        }
      ],
      "stateMutability": "view",
      "type": "function"
    },
    {
      "inputs": [],
      "name": "b",
      "outputs": [
        {
          "internalType": "address",
          "name": "",
          "type": "address"
        }
      ],
      "stateMutability": "view",
      "type": "function"
    }
  ],
  "bytecode": "0x608060405260076000806101000a81548160ff021916908360ff160217905550731711642c093184c1294cb1916b7082ee915fa85d600060016101000a81548173ffffffffffffffffffffffffffffffffffffffff021916908373ffffffffffffffffffffffffffffffffffffffff1602179055506001600060156101000a81548160ff02191690831515021790555034801561009b57600080fd5b50610177806100ab6000396000f3fe608060405234801561001057600080fd5b50600436106100365760003560e01c80630dbe671f1461003b5780634df7e3d014610059575b600080fd5b610043610077565b60405161005091906100e7565b60405180910390f35b610061610088565b60405161006e91906100cc565b60405180910390f35b60008054906101000a900460ff1681565b600060019054906101000a900473ffffffffffffffffffffffffffffffffffffffff1681565b6100b781610102565b82525050565b6100c681610134565b82525050565b60006020820190506100e160008301846100ae565b92915050565b60006020820190506100fc60008301846100bd565b92915050565b600061010d82610114565b9050919050565b600073ffffffffffffffffffffffffffffffffffffffff82169050919050565b600060ff8216905091905056fea26469706673582212203f86654406137aa009f533ee133cf41fa9296e0a55d0d92d9abfd8ebabbff12064736f6c63430008040033",
  "immutableReferences": {},
  "source": "// SPDX-License-Identifier: MIT\r\npragma solidity >=0.4.22 <0.9.0;\r\n\r\ncontract Storage {\r\n    uint8 public a = 7;\r\n    address public b = 0x1711642C093184C1294cb1916B7082eE915fA85D;\r\n    bool c = true;\r\n}\r\n",
  "sourcePath": "D:\\BlockChain\\faucet\\contracts\\Storage.sol",
  "compiler": {
    "name": "solc",
    "version": "0.8.4+commit.c7e474f2.Emscripten.clang"
  },
  "schemaVersion": "3.4.3",
  "updatedAt": "2021-11-08T13:01:29.052Z",
  "devdoc": {
    "kind": "dev",
    "methods": {},
    "version": 1
  },
  "userdoc": {
    "kind": "user",
    "methods": {},
    "version": 1
  }
}